:1000000000308A00192800002D3084008313000876
:10001000031918280130F800F701F70B0D28F80B29
:100020000C284A30F700F70B13281628800B0A28F3
:10003000080003081F39830083168E1507308312CA
:100040009F0083130130A0004F30A1001230A200A6
:100050000630A3004C30A4002430A5002030A600B8
:100060000F30A700A8010430A900AA01AB01053098
:10007000AC00831686018312860183160515831250
:1000800005194C2883168515831285194C2883166B
:1000900005168312051E732883168501023083120C
:1000A000850020302A07840083130008AD008316E2
:1000B000860183122D0886002C08AD0004208316CB
:1000C000850101308312850020302B0784008313C3
:1000D0000008AD008316860183122D0886002C08C7
:1000E000AD000420AE287E30AD00042083168501CB
:1000F00002308312850020302A0784008313000811
:10010000AD008316860183122D0886002C08AD00F1
:1001100004208316850101308312850020302B07CF
:10012000840083130008AD008316860183122D0816
:1001300086002C08AD000420831605158312051DCA
:10014000AE28AA0A2A08093C0318A828AB0AAA0163
:100150002B08093C0318AE28AB01AA013D28630017
:02400E00503F21
:00000001FF
;PIC16F628A
;CRC=2776  CREATED="01-fev-23 20:07"
